:020000040800F2
:10000000B84900200D9F00087116000873160008FB
:10001000771600087B1600087F1600080000000015
:10002000000000000000000000000000831600082F
:1000300085160008000000008716000889160008D1
:10004000279F0008279F0008279F0008279F000878
:10005000279F0008279F00083B9C0008279F000857
:10006000279F0008279F0008519C0008279F000831
:10007000279F0008279F0008279F0008279F000848
:10008000279F0008279F0008279F0008279F000838
:10009000279F0008279F0008279F0008699C0008E9
:1000A000279F0008279F0008279F0008279F000818
:1000B000279F0008279F0008279F0008279F000808
:1000C000279F0008279F0008279F0008279F0008F8
:1000D000279F0008839E0008279F0008279F00088D
:1000E000279F0008279F0008279F0008DFF80CD0F3
:1000F0000FF004F800480047BF0F0008B84900207F
:1001000010B5044660200AF0BDFFFE490860224693
:100110006021FC4800680DF0BEFB38B1FA48006869
:10012000401CF9490860F748006810BDF7A00FF0BF
:1001300009FA0020F9E770B5FA49096801EB4101B5
:10014000F94A02EB4112F749096801EB4101F64B0C
:1001500003EB4111F54B1B68591A491C501800213B
:100160000FF096FE04460EF0D5FD70BD10B50446A6
:10017000EC49096801EB4101EB4A02EB41102146D1
:100180000EF0EAFAE94908600846006808B1012063
:1001900010BD0020FCE72DE9F04186B00024E449C1
:1001A00003C9CDE90401E249083103C9CDE90201DF
:1001B0000020E0490860E04948680EF01EFD054651
:1001C000DD4908680EF019FD0646DC4948680EF066
:1001D00014FD0746D94908680EF00FFD8046D8483F
:1001E00000682B46324639460090404608F08CFBAA
:1001F000D448007807F00DFFD349086000BF73E0D2
:10020000CE4951F8240000210EF0A0FD19D24FF084
:10021000FF3004A941F824000020CC4A0090128845
:10022000103291B2E20002EB420303EBC203C84A70
:10023000128818321A4490B210232D2206F014FEB0
:1002400017E0012004A941F824000020BF4A0090D3
:100250001288103291B2E20002EB420303EBC203B8
:10026000BB4A128818321A4490B21023202206F09A
:10027000FBFDB14951F8240000210EF067FD19D2B1
:100280004FF0FF3002A941F824000020AF4A00904F
:100290001288203291B2E20002EB420303EBC20368
:1002A000AB4A128818321A4490B210232D2206F05D
:1002B000DBFD17E0012002A941F824000020A34A39
:1002C00000901288203291B2E20002EB420303EB6D
:1002D000C2039F4A128818321A4490B21023202277
:1002E00006F0C2FD601CC4B2022C89DB04980EF03B
:1002F0006AFC07469148016838460EF0A6FA0646A1
:100300000EF094FC05461020904A0090128810329E
:1003100091B28F4A1288203290B205232A4606F005
:1003200034FE05980EF04FFC074684484168384675
:100330000EF08BFA06460EF079FC05461020834A33
:1003400000901288103291B2814A1288783290B2AD
:1003500005232A4606F019FE02980EF034FC0746E3
:100360007548016838460EF070FA06460EF05EFCDD
:1003700005461020754A00901288203291B2744AC6
:100380001288203290B205232A4606F0FEFD03981B
:100390000EF019FC07466848416838460EF055FAD9
:1003A00006460EF043FC05461020684A009012886D
:1003B000203291B2664A1288783290B205232A46DA
:1003C00006F0E3FD5F48007863280ED110205F4AF5
:1003D00000901288303291B25D4A1288183290B281
:1003E0000323022206F0D1FD0DE01020574A0090B1
:1003F0001288303291B2564A1288183290B20323D2
:100400001A4606F0C2FD1020504A00901288303281
:1004100091B24F4A1288703290B206234A4A12684B
:1004200006F0B3FD47480078632802D108F0CEFEFD
:1004300005E0444800786E2801D109F06EF90024E7
:1004400007E03D4850F824003C4941F82400601C76
:10045000C4B2042CF5DB06B0BDE8F081F0B585B080
:1004600000243349103903C9CDE903013049083963
:1004700003C9CDE9010100202E4908603148007808
:1004800007F0C7FD3049086000BF9DE02B4951F8D7
:10049000240000210EF05AFC19D24FF0FF3003A9BE
:1004A00041F824000020294A00901288103291B2AD
:1004B000E20002EB420303EBC203254A1288183222
:1004C0001A4490B210232D2206F0CEFC17E0012032
:1004D00003A941F8240000201C4A00901288103221
:1004E00091B2E20002EB420303EBC203184A128806
:1004F00018321A4490B21023202206F0B5FC0E499F
:1005000028E000007C000020000000200D0A466961
:100510006C65207265616420737563636573732114
:100520000A0000001C000020A0020020840000201F
:10053000C4FE0008BC0000208002002070020020E1
:10054000D0000020C30000206C000020B600002076
:10055000B400002051F8240000210EF0F7FB19D25E
:100560004FF0FF3001A941F824000020F54A009027
:100570001288203291B2E20002EB420303EBC20385
:10058000F14A128818321A4490B210232D2206F034
:100590006BFC17E0012001A941F824000020E94A82
:1005A00000901288203291B2E20002EB420303EB8A
:1005B000C203E54A128818321A4490B2102320224E
:1005C00006F052FC601CC4B2022CFFF65FAF039829
:1005D0000EF0F9FA0746DD48016838460EF035F9A5
:1005E00006460EF023FB05461020D64A00901288DE
:1005F000103291B2D44A1288203290B205232A4692
:1006000006F0C3FC04980EF0DEFA0746CF484168B6
:1006100038460EF01AF906460EF008FB0546102083
:10062000C84A00901288103291B2C74A12887832B4
:1006300090B205232A4606F0A8FC01980EF0C3FAF2
:100640000746C348016838460EF0FFF806460EF02C
:10065000EDFA05461020BB4A00901288203291B274
:10066000B94A1288203290B205232A4606F08DFC42
:1006700002980EF0A8FA0746B548416838460EF0D1
:10068000E4F806460EF0D2FA05461020AD4A009076
:100690001288203291B2AC4A1288783290B2052387
:1006A0002A4606F072FC1020A64A009012883032CA
:1006B00091B2A54A1288183290B20323012206F0A3
:1006C00064FC10209F4A00901288303291B29E4AFA
:1006D0001288703290B206239E4A126806F055FCCA
:1006E00008F019FC002407E0994850F824009749C5
:1006F00041F82400601CC4B2042CF5DB05B0F0BD49
:1007000010B5954800786C2802D1FFF7A7FE09E0E4
:1007100091480078632803D08F4800786E2801D173
:10072000FFF739FD10BD2DE9FF474FF0000A42E009
:100730008A4911F80A00FFF719FD98B3884911F8A2
:100740000A1011B98749097809B1012100E0002197
:1007500008460EF038FA06467C4850F82A10304613
:100760000EF073F80446FFF7E6FC054621460EF04E
:1007700014F8774941F82A00BAF1020F19D17A48E2
:1007800001780078401C784A1070784830F81100E1
:10079000774908801046007809280AD100201146C0
:1007A000087006E0FFE7694850F82A00684941F8F8
:1007B0002A000AF1010ABAF1040FB9DB644988681A
:1007C0000EF080FA04460D46614948680EF07AFA48
:1007D00006460F465E4908680EF074FA80464246A7
:1007E0000B4664A0CDE90067CDE902450EF0AAFEF4
:1007F0005220FFF7BBFC58B1FFF79DFC04460EF0FA
:10080000FCF9654908600846016864A00EF09AFE8C
:100810004620FFF7ABFC58B1FFF78DFC04460EF005
:10082000ECF9624908600846016861A00EF08AFE92
:10083000BDE8FF8770B562480068401C604A014609
:10084000106060480EF07EFE4720FFF78FFC0546E3
:1008500029465DA00EF076FE4720FFF787FC0028B2
:100860006FD0FFF768FC05460EF0C7F915284ED08B
:1008700007DC68B101280CD0022815D0032812D15A
:100880002DE01C2847D05A2854D05C28F7D1D5E059
:1008900000BF6C2030490870FFF745FFFFF730FFBD
:1008A0004DA00EF04FFEDCE063202B490870FFF7EF
:1008B0003AFF39480068002808DA012048490870E2
:1008C0003548006840423449086002E0002044494D
:1008D0000870FFF715FF43A00EF034FEC1E06E2054
:1008E0001D490870FFF71FFF2B480068002808DA31
:1008F00001203B49087028480068404226490860AA
:1009000002E0002036490870FFF7FAFEA9E037A0A0
:100910000EF018FEA5E03CA00EF014FE002406E048
:100920000A4850F824000A4941F82400641C042CA9
:10093000F6DB96E03CA00EF005FE002009490870A9
:100940008FE08FE0B6000020B4000020700200208D
:10095000800200206C000020C3000020170000204F
:100960004E0000204C000020160000200400002053
:10097000B00000205468652064657374696E61740A
:10098000696F6E3A28252E33662C252E33662C256A
:100990002E3366292C000000D00000200D0A546878
:1009A0006520523A25640D0A0000000088000020EE
:1009B0004665656453706565643A25642C000000E3
:1009C00068000020D4FE00084770696F6E7474657B
:1009D000723A25640D0A00004C696E652E0D0A00FE
:1009E000C4000020434952432E0D0A007365742051
:1009F000756E69747320746F206D696C6C696D65B8
:100A0000746572732E0D0A00486F6D6520616C6C01
:100A10002041786973206F6E6520617420612074B5
:100A2000696D650D0A0000004162736F6C75746535
:100A3000206D6F64652E200D0A00000000240AE07E
:100A4000FE49085DFFF792FB20B1FFF774FBFC49FC
:100A500041F82400641C042CF2DBFAA00EF072FDB5
:100A600000BF5EE04D20FFF781FB00284AD0FFF772
:100A700062FB05460EF0C1F868280CD006DC52284F
:100A80001AD053281CD054283BD11DE06B2823D00A
:100A90006D2836D124E05320FFF768FB30B1FFF713
:100AA0004AFB05460EF0A9F8EC490860EB480168DE
:100AB000EBA00EF047FD24E0EBA00EF043FD20E09C
:100AC000F2A00EF03FFD1CE05320FFF74FFB10B9E2
:100AD000EEA00EF037FD14E0EFA00EF033FD10E0B5
:100AE0005320FFF743FB30B1FFF725FB05460EF01F
:100AF00084F8DA490860D9480168EAA00EF022FDBE
:100B000000BF0EE0F0A00EF01DFDF449096801EBF6
:100B10004101F34A02EB41100EF014FDE0A00EF08B
:100B200011FD70BD2DE9FC47002002F0B2FA4FF62E
:100B3000E0700090EB480088401F83B2E9480088CD
:100B4000401F82B20521084605F0FFFF4FF6FF70F7
:100B50000090E4484088401F83B2E2480088401F6C
:100B600082B2E0480188052005F0EFFFDE480088EA
:100B7000DE4908800020DC490880DA484088801E71
:100B800083B2D8480088801E82B20121084606F050
:100B9000EBF8D4480088401F83B2D2480088401F39
:100BA00082B20521084606F0DFF8CE484088401F93
:100BB00083B2CC480088401F82B2CA480188052011
:100BC00006F0D2F8C748048804EBD4704310C54837
:100BD000058805EBD5704110C24800880A3882B2FA
:100BE0000A2006F069F8BF48048804EBD471481065
:100BF0000DF0F2FF07460022BD4B0DF0FDFE05464D
:100C00000EF047F81FFA80FAB64BB3F8009009EBE4
:100C1000D9735910B34B1B88143B9AB2B14B1B8844
:100C20000A3B98B2534606F047F8AE48048804EBF6
:100C3000D47148100DF0D0FF07460022AC4B0DF0E8
:100C40003AFE05460EF025F81FFA80FAA54BB3F8D8
:100C5000009009EBD9735910A24B1B88143B9AB230
:100C6000A04B1B880A3B98B2534606F025F89D49D5
:100C70000C8804EBD4714A109A490D8805EBD571A4
:100C80004810984909880A398BB20A2106F014F8ED
:100C90009448048804EBD47148100DF09DFF07467A
:100CA0000022934B0DF0A8FE05460DF0F2FF1FFA4F
:100CB00080FA8C49B1F8009009EBD97148101423DF
:100CC00052460A2105F0F8FF8648048804EBD471E7
:100CD00048100DF081FF07460022854B0DF0EBFD1B
:100CE00005460DF0D6FF1FFA80FA7E49B1F8009054
:100CF00009EBD9714810142352460A2105F0DCFF94
:100D00007A4800887849088008207A490880754820
:100D10000088C01C7849088078A010210B46482222
:100D2000CDE90010744801887248008806F0D6F9B1
:100D300073A01021CDE900106E490988583188B29E
:100D4000102336226C49098806F0C8F96DA01021DD
:100D5000CDE9001068480088103081B21023482285
:100D60006448008806F0BAF967A01021624ACDE90C
:100D700000101288103291B25E4A1288583290B236
:100D80001023482206F0AAF960A01021CDE9001036
:100D900059480088203081B21023482255480088E5
:100DA00006F09CF95AA01021534ACDE90010128890
:100DB000203291B24F4A1288583290B21023482202
:100DC00006F08CF953A01021CDE900104A480088A4
:100DD000303081B2102348224648008806F07EF960
:100DE0004DA01021444ACDE900101288303291B252
:100DF000404A1288403290B21023482206F06EF921
:100E0000BDE8FC872DE9FC4104460027002006F0E0
:100E100040FA0646B8E0012E0ED1781CC7B23A4619
:100E20003FA120460DF0BAF905460DB9207810B95A
:100E30000620BDE8FC8179E0A1E000001700002059
:100E4000700200204368616E6765732074686520D6
:100E50006F726967696E0D0A0000000030000020A3
:100E6000256420430D0A00006162736F6C75746520
:100E70002064697374616E63657320666F722065A8
:100E80007874727573696F6E0D0A00003F3F3F3FC3
:100E90003F3F0D0A0000000046616E204F66660D60
:100EA0000A0000005761697420666F7220657874CB
:100EB00072756465722068656174657220746F2054
:100EC00025640D0A00000000556E6B6E6F776E2072
:100ED000636F6D6D616E643A000000001C000020BD
:100EE000A0020020180A0020B00000209800002076
:100EF00000000840B4000020B600002058203A004E
:100F000059203A0058303A0059303A0058653A00B2
:100F100059653A0047203A0073746570733A0000CF
:100F2000303A2F4E43434F44450000000820FE490D
:100F30000880FE480088C01C80B2FD4908800880F7
:100F40004FF6FF70FB490880FBA01021CDE900108F
:100F5000F7480088103081B21023F022F248008850
:100F600006F0BCF81020CDE90004F14800881030EC
:100F700081B210234822EC48008806F0AFF8002622
:100F8000002006F086F90646022E7FF444AF28467C
:100F9000BDE8FC8170B50446EE4802780078401C3C
:100FA000EC4B1870AFF2880120460DF089FA054627
:100FB0000DB9207808B9062070BD2846FCE790B02E
:100FC00000270025AFF2A80808F0F8FE08F08EFE12
:100FD0004FF4165008F006FF0CF03EFE02F0ABF89E
:100FE00000F042FC06F036F909F0BDFF06F054FEB1
:100FF00040F2CF1002F04DF84FF47840D649088007
:1010000040F2CF10CB490880D4A018210B46C8224B
:10101000CDE900105A210A2006F060F8D4A018216A
:101020000B46C822CDE9001072210A2006F056F8BE
:10103000D4A010210B46C822CDE900108A210A2035
:1010400006F04CF841F2883008F08CFE27E0D4A07E
:1010500010210B46C822CDE9001096213C2006F055
:101060003DF806F017FB06463146D1A00EF06AFAAD
:10107000C82008F077FE4FF6FF70A623F0229621D5
:1010800000903C2005F061FDC82008F06BFECD48C3
:10109000006808B9012000E00020CA49086006F095
:1010A000F9FA0028D3D10CF0D7FDC749012208680E
:1010B000C6A10AF0E9FFC44901224868C4A10AF0A8
:1010C000E3FF23E0C3A010210B46C822CDE90010A6
:1010D00096213C2006F002F8C2A00EF033FAC82098
:1010E00008F040FE4FF6FF70A623F02296210090F4
:1010F0003C2005F02AFDC82008F034FEB148006805
:1011000008B9012000E00020AE4908600EAA0FA92E
:10111000B8A00CF03EFE0028D4D1B7A00EF012FA11
:101120000F98810AB9A00EF00DFABAA00EF00AFAD3
:101130000E98810ABCA00EF005FA002001F0A9FF6C
:101140004FF6E070009079480088401F83B27748DE
:101150000088401F82B20521084605F0F6FC4FF6D4
:10116000FF70009071484088401F83B26F4800882C
:10117000401F82B26D480188052005F0E6FC08207A
:10118000694908806A490880142109A80DF0CDFA40
:101190004FF6E07067490880A6A010210B46F022A8
:1011A000CDE90010624801885F48008805F096FF8D
:1011B00015E0681CC5B209AA2946A5A00EF0C2F91F
:1011C00009A81021CDE900105948008801FB05004D
:1011D00081B2102348225448008805F07FFF09A8F7
:1011E000FFF7D8FE0028E4D09CA01021CDE9001024
:1011F0004F480288681C01FB002081B21023F022B6
:101200004948008805F06AFF142109A80DF08DFAFD
:1012100008204549088045480088C01C80B24449E0
:10122000088008804FF6FF704249088000204A4934
:10123000088091A010210B46F022CDE900103C4817
:1012400001883948008805F049FF92A01021CDE9B6
:10125000001037480088103081B21023F022324845
:10126000008805F03BFF92A01021CDE90010304826
:101270000088203081B21023F0222B48008805F02E
:101280002DFF91A01021CDE90010294800883030B1
:1012900081B21023F0222448008805F01FFF08E0E7
:1012A00009A8FFF7AFFD9DF8240010B98CA00EF03F
:1012B00049F99DF824000028F2D009A98DA00EF06C
:1012C00041F94FF4784024490880FFF72BFC8E4900
:1012D00048680DF0ABFC06468B4908680DF0A6FC8B
:1012E00081468A4948680DF0A1FC82468749086812
:1012F0000DF09CFC83460020CDE9016053465A4620
:10130000CDF800900390824801688248006805F09B
:1013100018FF04A980A00EF015F9414604A80DF0AD
:1013200033FA81A104A801E1B4000020180A0020CA
:10133000B6000020B2000020202020202020202005
:10134000202020202020202020202020202020209D
:101350002020200078000020B000002020205765C9
:101360006C636F6D6520746F207468650000000009
:101370002020656D62656465642073797374656DA2
:10138000210000002020205468616E6B7320666F7E
:1013900072207375706F7274696E672100000000AF
:1013A00053442043617264204572726F72210000C1
:1013B00025583A53442043617264204572726F721B
:1013C000210D0A00A00121424C020020303A000009
:1013D000313A00004661746673204572726F722163
:1013E000000000004661746673204572726F7221BE
:1013F0000D0A0000300000000D0A20534420546FF5
:1014000074616C2053697A653A00000025313064BC
:101410004D200A000D0A20534420204672656520A5
:1014200053697A653A000000253130644D200D0A79
:101430000000000046494C452044495243544F5255
:10144000593A2D2D2D2D2D2D2D2D2D2D2D0000001A
:1014500046252D32643A2573200D0A002D2D2D2DA1
:101460002D2D2D2D2D2D2D2D2D2D2D2D2D2D2D2DAC
:101470002D2D2D2D2D0000005448452043484F4F61
:101480005345442046494C453A2D2D2D2D2D2D2DCB
:101490002D2D0000507265204B65793020746F202F
:1014A00063686F6F73652066696C652120000000BA
:1014B000284B45593020666F72206368616E6769FA
:1014C0006E673B2000000000204B45593120666FBD
:1014D0007220636F6E6669726D696E672E290000F7
:1014E0000ACEB4D5FDC8B7D1A1D4F1CEC4BCFE0D8F
:1014F0000A00000063686F6F73652D2D2D2D2D3E42
:101500003A25730A000000008002002070020020CB
:10151000740000207000002025732D2D2D2D2D2D01
:101520002D2D2D2D000000002F0000000DF008F9DA
:1015300009A904A80DF004F904A9AFF224000EF0E3
:1015400001F8132204A931480AF0C9FD3049087096
:10155000142104A80DF0E9F82D48007820B109A95C
:101560002CA00DF0EFFF03E009A930A00DF0EAFF79
:10157000602009F087FD044633480DF0E3FF15E0D5
:1015800000263248006809F071FD04E014F8010BF0
:101590002F498855761C20780028F7D1FFF74AF9A3
:1015A000602200212A4809F0D4FC00BF1748FEF74A
:1015B000A7FD0400E4D1244848300DF0C3FF2046C5
:1015C00009F054FD11480BF069F81F2021490880EB
:1015D0004FF6E0702049088020A00C210B46C8225D
:1015E000CDE900100A21084605F078FD0CE0781CD2
:1015F000C7B2C82008F0B6FB1C48006808B9012033
:1016000000E0002019490860F1E70000F007002021
:101610009A0000204F70656E2046696C652825731E
:1016200029206661696C65642E0D0A006F70656E15
:1016300020466C696528257329207375636365737B
:101640007365642E0D0A000018FF00087C0000205E
:10165000A0020020B0000020B2000020434F44450B
:101660002046494E4953482100000000A001214274
:10167000704700BFFEE700BFFEE700BFFEE700BF08
:10168000FEE7704770477047704700000CB50020B8
:10169000019000906B48006840F480306949086010
:1016A00000BF6848006800F4003000900198401CBA
:1016B0000190009818B90198B0F5A06FF1D1614878
:1016C000006810F4003F02D00120009001E00020EB
:1016D00000900098012842D15B48006840F010005B
:1016E000594908600846006820F003000860084671
:1016F000006840F002000860524840685149486064
:101700000846406848600846406840F48060486089
:101710000846406820F47C1048600846406840F461
:10172000E81048600846006840F08070086000BF1C
:101730004448006810F0007FFAD04248406820F02A
:101740000300404948600846406840F00200486095
:1017500000BF3C48406800F00C000828F9D10CBDDF
:1017600010B5FFF793FF10BD10B53648006840F084
:10177000010034490860084640683449084031494E
:10178000486008460068324908402E49086008460B
:10179000006820F4802008600846406820F4FE00BD
:1017A00048604FF41F008860FFF7DAFF4FF00060D9
:1017B0002849086010BD10B5002100200022214BEF
:1017C0005B6803F00C0121B1042906D0082928D157
:1017D00007E0214B214C236027E01F4B1F4C236067
:1017E00023E0184B5B6803F47010164B5B6803F43E
:1017F0008032022303EB904022B9194B4343174C2C
:1018000023600DE00F4B5B6813F4003F04D0144BD2
:101810004343124C236003E00F4B43430F4C2360C0
:1018200003E00D4B0D4C236000BF00BF054B5B6810
:10183000C3F303130B4CE15C084B1B68CB40074C14
:10184000236010BD00100240002002400000FFF89D
:10185000FFFFF6FE08ED00E000127A009C00002079
:1018600000093D00A000002008B50121242008F057
:1018700075FE4FF48070ADF8000010208DF8030065
:1018800003208DF802006946094808F0B1FB4FF4C7
:101890008071074808F057FC0420ADF80000694645
:1018A000044808F0A5FB0421024808F04CFC08BDE0
:1018B000000801400014014010B504464FF4807147
:1018C000FE4808F042FC4FF40071FC4808F03DFC73
:1018D0002146FB4808F040FC8021F84808F035FC20
:1018E0008021F64808F02FFC4FF40071F34808F00F
:1018F0002AFC10BD10B504464FF48071EF4808F083
:1019000022FC4FF40071ED4808F01FFC2146EC4822
:1019100008F022FC8021E94808F017FC8021E74804
:1019200008F011FC4FF40071E44808F00CFC10BD05
:1019300010B54FF08830E2490860091D08600020AA
:10194000DF490C3108608915DC4808F0FCFB4FF4D6
:101950000071DA4808F0F9FB4021D84808F0F5FB9F
:10196000D8488088A0F50941893902D1022008F0C1
:10197000D6F9D34808F0D6FB04464021CF4808F0FA
:10198000E2FB4FF40071CD4808F0DDFB4FF033303F
:10199000CB490860091D08604FF6FF70C8490C313B
:1019A0000860204610BD70B504460D462046FFF77E
:1019B00083FF4FF48071C14808F0C5FB4FF40071FC
:1019C000BE4808F0C2FB2946BD4808F0C5FB80218F
:1019D000BA4808F0BAFB8021B84808F0B4FB4FF4CD
:1019E0000071B64808F0AFFB70BD10B50446204644
:1019F000FFF762FFFFF79CFF10BD10B5B1490889E2
:101A0000FFF75AFF10BD10B504464FF48071AB4884
:101A100008F099FB4FF40071A84808F096FB2146A6
:101A2000A74808F099FB8021A44808F08EFB80218C
:101A3000A24808F088FB4FF40071A04808F083FB2F
:101A400010BD30B5014601F01F04C1F34513CA0AA9
:101A5000E50205EB43151544A8B230BD70B5044648
:101A60000D4698488088A0F51341413905D0954826
:101A70008088A0F5A641103975D192494889FFF7B1
:101A80001BFF4FF480718D4808F05DFB4FF400712F
:101A90008A4808F05AFB2112894808F05DFB802132
:101AA000864808F052FB8021844808F04CFB4FF434
:101AB0000071824808F047FB4FF480717F4808F0BE
:101AC00042FB4FF400717D4808F03FFBE1B27C48D7
:101AD00008F042FB8021794808F037FB80217748E5
:101AE00008F031FB4FF40071744808F02CFB754985
:101AF0008889FFF7E1FE4FF48071704808F023FBFE
:101B00004FF400716D4808F020FB29126C4808F072
:101B100023FB8021694808F018FB8021674808F002
:101B200012FB4FF40071654808F00DFB4FF4807113
:101B3000624808F008FB4FF40071604808F005FBAC
:101B4000E9B25F4808F008FB80215C4808F0FDFA24
:101B500080215A4808F0F7FA4FF40071574808F00E
:101B6000F2FA28E1FFE757488088A0F5D041043910
:101B70007ED154488079012804D152480088401E03
:101B8000001B84B24F494889FFF796FE4FF48071DD
:101B90004A4808F0D8FA4FF40071484808F0D5FADE
:101BA0002112474808F0D8FA8021444808F0CDFABD
:101BB0008021424808F0C7FA4FF400713F4808F00E
:101BC000C2FA4FF480713D4808F0BDFA4FF400713D
:101BD0003A4808F0BAFAE1B2394808F0BDFA802173
:101BE000364808F0B2FA8021344808F0ACFA4FF4D5
:101BF0000071324808F0A7FA32498889FFF75CFE85
:101C00004FF480712D4808F09EFA4FF400712B4874
:101C100008F09BFA29122A4808F09EFA80212748EA
:101C200008F093FA8021254808F08DFA4FF40071EE
:101C3000224808F088FA4FF48071204808F083FAAF
:101C40004FF400711D4808F080FAE9B21C4808F012
:101C500083FA8021194808F078FA8021174808F0A3
:101C600072FA4FF40071154808F06DFAA3E0FFE72F
:101C700014488088A0F5AA4110397CD111494889BF
:101C8000FFF71AFE4FF480710C4808F05CFA4FF42D
:101C900000710A4808F059FA2112094808F05CFA64
:101CA0008021064808F051FA8021044808F04BFAD8
:101CB0004FF40071014808F046FA05E000100140B9
:101CC000000C0140180A0020F9494989491C88B2D2
:101CD000FFF7F2FD4FF48071F64808F034FA4FF444
:101CE0000071F44808F031FAE1B2F34808F034FA30
:101CF0008021F04808F029FA8021EE4808F023FA04
:101D00004FF40071EB4808F01EFAE9498889FFF7A3
:101D1000D3FD4FF48071E74808F015FA4FF40071D5
:101D2000E44808F012FA2912E34808F015FA802175
:101D3000E04808F00AFA8021DE4808F004FA4FF47F
:101D40000071DC4808F0FFF9D9498989491C88B23B
:101D5000FFF7B2FD4FF48071D64808F0F4F94FF464
:101D60000071D44808F0F1F9E9B2D34808F0F4F969
:101D70008021D04800E00BE008F0E7F98021CD4851
:101D800008F0E1F94FF40071CA4808F0DCF912E0FC
:101D9000C7488079012804D1C5480088401E001B2F
:101DA00084B2C34948892146FFF7FDFDC0498889AF
:101DB0002946FFF7F8FD70BD2DE9F04105460E46B6
:101DC000BB480088A84203DDB9484088B04202DC25
:101DD0000020BDE8F08131462846FFF73FFEB448B9
:101DE0008088A0F5134141390BD0B1488088A0F517
:101DF000D041043905D0AE488088A0F5A6411039FD
:101E000003D12E20FFF758FD0DE0A9488088A0F5EA
:101E1000AA41103904D14FF43850FFF74DFD02E0CC
:101E20002220FFF749FD4FF08830A3490860091DC3
:101E300008604FF6FF70A0490C31086089159D4875
:101E400008F081F94FF400719A4808F07EF94021BA
:101E5000984808F07AF9012007F061FF4021954881
:101E600008F071F94021934808F06FF9012007F05C
:101E700056FF914808F056F9044640218D4808F075
:101E800062F98B488088A0F5134141390BD088480E
:101E90008088A0F5A641103905D085488088A0F536
:101EA000AA41103911D14021824808F04EF98248E8
:101EB00008F038F9804640217E4808F044F9E7B23E
:101EC0004FF6FF7000EA072711E079488088A0F5F7
:101ED000D04104390BD14021764808F036F9402131
:101EE000744808F030F9744808F01CF904464FF4BF
:101EF0000071704808F027F94FF033306E490860E0
:101F0000091D08604FF6FF706B490C310860684886
:101F10008088A0F51341253917D065488088A0F541
:101F20008A41353911D062488088A0F58A4131391B
:101F30000BD05F488088A0F50941893905D05C48FD
:101F40008088A0F53541053901D1204641E7584840
:101F50008088A0F5134141390BD055488088A0F501
:101F6000A641103905D052488088A0F5AA41103901
:101F700007D1E012C002B91240EA411040EAE8205D
:101F800027E72046FFF75DFD23E710B54848808826
:101F9000A0F5134141390BD045488088A0F5D041C8
:101FA000043905D042488088A0F5A641103903D1F4
:101FB0002920FFF781FC0FE03D488088A0F5AA4169
:101FC000103904D14FF42450FFF776FC04E040F2BE
:101FD00073110720FFF7E7FC10BD10B53448808867
:101FE000A0F5134141390BD031488088A0F5D0418C
:101FF000043905D02E488088A0F5A641103903D1B8
:102000002820FFF759FC0EE029488088A0F5AA4156
:10201000103904D14FF42050FFF74EFC03E00021AB
:102020000720FFF7C0FC10BD2DE9F0410546002454
:1020300000271F48807901281ED11D488088A0F5FF
:10204000D041043918D0082D15D2DFE805F0040678
:10205000080A0C0E101206250DE007250BE00425DA
:1020600009E0052507E0012505E0002503E003253B
:1020700001E0022500BF00BF0D488088A0F5134194
:10208000413911D00A488088A0F5D04104390BD0DD
:1020900007488088A0F5A641103905D004488088FB
:1020A000A0F5AA4110397DD1082D24D206E0000008
:1020B000180A002000100140000C0140DFE805F084
:1020C0000406090C0F12151800BF14E044F0800438
:1020D00011E044F040040EE044F0C0040BE044F092
:1020E000200408E044F0600405E044F0A00402E0AD
:1020F00044F0E00400BF00BFFE488088A0F5AA417C
:10210000103902D14FF4585700E03627F94880883B
:10211000A0F5A641103907D0F6488088A0F5AA415D
:10212000103901D044F00804F2488088A0F5D0416D
:10213000043901D144F0020421463846FFF733FC4C
:1021400014F0200F03D1EB48807901280DD1E94824
:102150000088E8494988884214DAE64806884088B9
:10216000E4490880084646800CE0E2480088E149DE
:102170004988884206DDDF4806884088DD490880B6
:1021800008464680DB488088A0F5AA4110397CD1FA
:10219000D8494889FFF790FB4FF48071D64807F083
:1021A000D2FF00E002E24FF40071D34807F0CDFF08
:1021B0000021D24807F0D0FF8021CF4807F0C5FFAB
:1021C0008021CD4807F0BFFF4FF40071CA4807F0E7
:1021D000BAFFC8494989491C88B2FFF76DFB4FF423
:1021E0008071C54807F0AFFF4FF40071C24807F097
:1021F000ACFF0021C14807F0AFFF8021BE4807F0C7
:10220000A4FF8021BC4807F09EFF4FF40071BA483C
:1022100007F099FFB7494989891C88B2FFF74CFB41
:102220004FF48071B44807F08EFF4FF40071B2484C
:1022300007F08BFFAF480088401EC0F30F21AF4866
:1022400007F08AFF8021AC4807F07FFF8021AA4871
:1022500007F079FF4FF40071A74807F074FFA54914
:102260004989C91C88B2FFF727FB4FF48071A24847
:1022700007F069FF4FF400719F4807F066FF9D4823
:102280000078401EC1B29D4800E098E007F064FF6E
:102290008021994807F059FF8021974807F053FFA4
:1022A0004FF40071944807F04EFF92498889FFF778
:1022B00003FB4FF48071904807F045FF4FF4007125
:1022C0008D4807F042FF00218C4807F045FF802130
:1022D000894807F03AFF8021874807F034FF4FF420
:1022E0000071854807F02FFF82498989491C88B20F
:1022F000FFF7E2FA4FF480717F4807F024FF4FF4B4
:1023000000717D4807F021FF00217C4807F024FF81
:102310008021794807F019FF8021774807F013FFE3
:102320004FF40071744807F00EFF72498989891CC7
:1023300088B2FFF7C1FA4FF480716F4807F003FFCE
:102340004FF400716C4807F000FF6A484088401E57
:10235000C0F30F21694807F0FFFE8021664807F0AF
:10236000F4FE8021644807F0EEFE4FF400716248ED
:1023700007F0E9FE5F498989C91C88B2FFF79CFA1A
:102380004FF480715C4807F0DEFE4FF400715A484C
:1023900007F0DBFE57488078401EC1B2574807F06F
:1023A000DBFE8021544807F0D0FE8021524807F020
:1023B000CAFE4FF40071504807F0C5FE28E14D49B0
:1023C0004889FFF779FA4FF480714B4807F0BBFE5C
:1023D0004FF40071484807F0B8FE0021474807F065
:1023E000BBFE8021444807F0B0FE8021424807F040
:1023F000AAFE4FF40071404807F0A5FE4FF480712B
:102400003D4807F0A0FE4FF400713B4807F09DFEE9
:1024100000213A4807F0A0FE8021374807F095FEDA
:102420008021354807F08FFE4FF40071324807F0E5
:102430008AFE4FF48071304807F085FE4FF400713A
:102440002D4807F082FE2B480088401EC0F30F2164
:102450002A4807F081FE8021274807F076FE802178
:10246000254807F070FE4FF40071234807F06BFE1B
:102470004FF48071204807F066FE4FF400711E484B
:1024800007F063FE1B480078401EC1B21B4807F0EE
:1024900063FE8021184807F058FE8021164807F097
:1024A00052FE4FF40071144807F04DFE114988891F
:1024B000FFF702FA4FF480710F4807F044FE4FF423
:1024C00000710D4807F041FE00210C4807F044FE62
:1024D0008021094807F039FE8021074807F033FEC4
:1024E0004FF40071044807F02EFE4FF4807102484B
:1024F00006E00000180A002000100140000C014016
:1025000007F021FE4FF40071FE4807F01EFE002187
:10251000FD4807F021FE8021FA4807F016FE8021D1
:10252000F84807F010FE4FF40071F64807F00BFE74
:102530004FF48071F34807F006FE4FF40071F14844
:1025400007F003FEF1484088401EC0F30F21EE481B
:1025500007F002FE8021EB4807F0F7FD8021E948F3
:1025600007F0F1FD4FF40071E64807F0ECFD4FF481
:102570008071E44807F0E7FD4FF40071E14807F08F
:10258000E4FDE2488078401EC1B2DF4807F0E4FD78
:102590008021DC4807F0D9FD8021DA4807F0D3FD1F
:1025A0004FF40071D74807F0CEFD31E0082D1CD262
:1025B000DFE805F004070A0D0F12151844F0300487
:1025C00013E044F0100410E044F020040DE000BFDC
:1025D0000BE044F0380408E044F0280405E044F03F
:1025E000180402E044F0080400BF00BFC748808818
:1025F000A0F50941893904D1112746F2400004436E
:1026000002E0032744F4805421463846FFF7CBF913
:10261000BDE8F08170B504460D4629462046FFF717
:102620001DFAFFF7EAF94FF48071B64807F08BFD09
:102630004FF40071B34807F088FDB5480188B248EF
:1026400007F08AFD8021AF4807F07FFD8021AD486B
:1026500007F079FD4FF40071AA4807F074FD70BDD2
:1026600070B504460D461646A8488088A0F513416B
:10267000413905D0A5488088A0F5A641103975D10B
:10268000A2494889FFF718F94FF480719D4807F077
:102690005AFD4FF400719B4807F057FD21129A48EC
:1026A00007F05AFD8021974807F04FFD802195489B
:1026B00007F049FD4FF40071924807F044FD4FF4D4
:1026C0008071904807F03FFD4FF400718D4807F08E
:1026D0003CFDE1B28C4807F03FFD8021894807F0BE
:1026E00034FD8021874807F02EFD4FF400718548A6
:1026F00007F029FD85498889FFF7DEF84FF48071DE
:10270000804807F020FD4FF400717E4807F01DFD62
:1027100029127D4807F020FD80217A4807F015FD39
:102720008021784807F00FFD4FF40071754807F0DD
:102730000AFD4FF48071734807F005FD4FF40071F6
:10274000704807F002FDE9B26F4807F005FD8021EF
:102750006C4807F0FAFC80216A4807F0F4FC4FF45B
:102760000071684807F0EFFC2BE1FFE767488088BD
:10277000A0F5AA4110397DD164494889FFF79CF83A
:102780004FF480715F4807F0DEFC4FF400715D4844
:1027900007F0DBFC21125C4807F0DEFC8021594881
:1027A00007F0D3FC8021574807F0CDFC4FF40071AF
:1027B000544807F0C8FC55494989491C88B2FFF7BD
:1027C0007BF84FF480714F4807F0BDFC4FF4007167
:1027D0004C4807F0BAFCE1B24B4807F0BDFC802141
:1027E000484807F0B2FC8021464807F0ACFC4FF4A3
:1027F0000071444807F0A7FC44498889FFF75CF85A
:102800004FF480713F4807F09EFC4FF400713D4843
:1028100007F09BFC29123C4807F09EFC80213948B8
:1028200007F093FC8021374807F08DFC4FF40071CE
:10283000344807F088FC35498989491C88B2FFF77C
:102840003BF84FF480712F4807F07DFC4FF4007186
:102850002C4807F07AFCE9B22B4807F07DFC802178
:10286000284807F072FC8021264807F06CFC4FF4E2
:10287000007100E003E0234807F065FCA1E0234875
:102880008088A0F5D04104397ED120488079012884
:1028900004D11E480088401E001B84B21B49488991
:1028A000FFF70AF84FF48071164807F04CFC4FF41C
:1028B0000071144807F049FC2112134807F04CFC42
:1028C0008021104807F041FC80210E4807F03BFCB6
:1028D0004FF400710B4807F036FC4FF48071094843
:1028E00007F031FC4FF40071064807F02EFCE1B20E
:1028F000054807F031FC8021024807F026FC8021C2
:10290000004807E000100140000C0140180A0020B8
:10291000B000002007F017FC4FF40071FD4807F0ED
:1029200012FCFD498889FEF7C7FF4FF48071F94812
:1029300007F009FC4FF40071F64807F006FC291275
:10294000F64807F009FC8021F24807F0FEFB8021E1
:10295000F04807F0F8FB4FF40071EE4807F0F3FB86
:102960004FF48071EB4807F0EEFB4FF40071E9483B
:1029700007F0EBFBE9B2E94807F0EEFB8021E54800
:1029800007F0E3FB802100E008E0E24807F0DBFB12
:102990004FF40071DF4807F0D6FB12E0DE48807983
:1029A000012804D1DC480088401E001B84B2DA49AB
:1029B00048892146FEF7F7FFD74988892946FEF75F
:1029C000F2FF4FF48071D34807F0BFFB4FF4007162
:1029D000D04807F0BAFBD0480189D04807F0BCFBCB
:1029E0008021CC4807F0B1FB8021CA4807F0ABFB3F
:1029F0004FF40071C74807F0A6FB4FF48071C5483B
:102A000007F0A1FB4FF40071C24807F09EFB31466E
:102A1000C24807F0A1FB8021BE4807F096FB802149
:102A2000BC4807F090FB4FF40071BA4807F08BFBED
:102A300070BD10B50446002C60D1B7498871F020F4
:102A400008804FF4A070488008468088A0F51341A4
:102A500041390BD0B0488088A0F5D041043905D069
:102A6000AD488088A0F5A64110391AD12C20AA497A
:102A700008812A2048812B20888108468088A0F57B
:102A8000D041043905D0A4488088A0F5A64110396A
:102A900006D14FF4A070A04908804FF4F070488030
:102AA00095E09D488088A0F50941893907D1222009
:102AB000994908814E2048814F20888187E09648B7
:102AC0008088A0F5AA41103910D14FF430509249B6
:102AD00008814FF4285048814FF42C5088814FF4DE
:102AE000F07008804FF44870488070E022208A49D6
:102AF0000881202048812120888168E001208649C2
:102B000088714FF4A0700880F020488008468088C3
:102B1000A0F51341413905D07F488088A0F5A64132
:102B2000103907D12C207C4908812A2048812B208C
:102B3000888139E078488088A0F5D041043907D1F0
:102B40002C20754908812B2048812A2088812BE080
:102B500071488088A0F50941893907D122206E4942
:102B600008814F2048814E2088811DE06A48808876
:102B7000A0F5AA41103910D14FF4305066490881B0
:102B80004FF4285048814FF42C5088814FF44870FE
:102B900008804FF4F070488006E022205E490881EA
:102BA00021204881202088815B488088A0F5D04181
:102BB000043905D058488088A0F5A641103906D1BF
:102BC0004FF4F070544908804FF4A0704880002002
:102BD000FFF72AFA10BD2DE9FF5F04460D461646A1
:102BE0001F46A019401E86B2E819401E87B24A4807
:102BF0008088A0F5134141390BD047488088A0F563
:102C0000A641103905D044488088A0F5D041043948
:102C10007ED141494889FEF74FFE4FF480713D480F
:102C200007F091FA4FF400713A4807F08EFA21123A
:102C30003A4807F091FA8021364807F086FA802159
:102C4000344807F080FA4FF40071324807F07BFAFD
:102C50004FF480712F4807F076FA4FF400712D4839
:102C600007F073FAE1B22D4807F076FA802129487F
:102C700007F06BFA8021274807F065FA4FF40071DE
:102C8000244807F060FA4FF48071224807F05BFA9D
:102C90004FF400711F4807F058FA31121F4807F02F
:102CA0005BFA80211B4807F050FA8021194807F091
:102CB0004AFA4FF40071174807F045FA4FF4807153
:102CC000144807F040FA4FF40071124807F03DFA3B
:102CD000F1B2124807F040FA80210E4807F035FAA9
:102CE00080210C4807F02FFA4FF40071094807F0D3
:102CF0002AFA09498889FEF7DFFD4FF480710548FB
:102D000007F021FA4FF40071024807F01EFA07E0BD
:102D100069E0000000100140180A0020000C01408A
:102D20002912FE4807F018FA8021FD4807F00DFA35
:102D30008021FB4807F007FA4FF40071F84807F0CC
:102D400002FA4FF48071F64807F0FDF94FF4007174
:102D5000F34807F0FAF9E9B2F04807F0FDF98021ED
:102D6000EF4807F0F2F98021ED4807F0ECF94FF455
:102D70000071EB4807F0E7F94FF48071E84807F07D
:102D8000E2F94FF40071E64807F0DFF93912E34841
:102D900007F0E2F98021E24807F0D7F98021E04806
:102DA00007F0D1F94FF40071DD4807F0CCF94FF48A
:102DB0008071DB4807F0C7F94FF40071D84807F07D
:102DC000C4F9F9B2D54807F0C7F98021D44807F013
:102DD000BCF98021D24807F0B6F94FF40071D04811
:102DE00007F0B1F953E1CF488088A0F5AA41103926
:102DF0007DD1CC494889FEF75FFD4FF48071C8480A
:102E000007F0A1F94FF40071C54807F09EF92112AF
:102E1000C24807F0A1F98021C14807F096F9802146
:102E2000BF4807F090F94FF40071BD4807F08BF9E7
:102E3000BC494989491C88B2FEF73EFD4FF48071B8
:102E4000B74807F080F94FF40071B54807F07DF9F5
:102E5000E1B2B24807F080F98021B14807F075F976
:102E60008021AF4807F06FF94FF40071AC4807F0CC
:102E70006AF9AC494989891C88B2FEF71DFD4FF4F7
:102E80008071A74807F05FF94FF40071A44807F07C
:102E90005CF93112A14807F05FF98021A04807F0E2
:102EA00054F980219E4807F04EF94FF400719C4878
:102EB00007F049F99B494989C91C88B2FEF7FCFC17
:102EC0004FF48071964807F03EF94FF40071944832
:102ED00007F03BF9F1B2914807F03EF980219048A4
:102EE00007F033F980218E4807F02DF900E087E0E4
:102EF0004FF400718A4807F026F98A498889FEF75D
:102F0000DBFC4FF48071864807F01DF94FF4007127
:102F1000834807F01AF92912804807F01DF980212B
:102F20007F4807F012F980217D4807F00CF94FF433
:102F300000717B4807F007F97A498989491C88B2F2
:102F4000FEF7BAFC4FF48071754807F0FCF84FF4B7
:102F50000071734807F0F9F8E9B2704807F0FCF81F
:102F600080216F4807F0F1F880216D4807F0EBF8F9
:102F70004FF400716A4807F0E6F86A498989891CAC
:102F800088B2FEF799FC4FF48071654807F0DBF8D2
:102F90004FF40071624807F0D8F839125F4807F023
:102FA000DBF880215E4807F0D0F880215C4807F00C
:102FB000CAF84FF400715A4807F0C5F85949898991
:102FC000C91C88B2FEF778FC4FF48071544807F0B2
:102FD000BAF84FF40071524807F0B7F8F9B24F4809
:102FE00007F0BAF880214E4807F0AFF880214C482E
:102FF00007F0A9F84FF40071494807F0A4F846E03B
:103000004848807901280ED1A846B946454800882D
:10301000801B401E80B2009042480088001B401E6A
:103020001FFA80FB03E0A046B1460095BB463D4831
:103030008088A0F5094189390DD14FF0440A442018
:10304000039048EA09201FFA80F8C1464520029003
:103050004620019007E04FF0500A51200390522083
:1030600002905320019041465046FEF79CFC494691
:103070000398FEF798FC00990298FEF794FC5946D5
:103080000198FEF790FC29462046FEF7E7FCBDE8D4
:10309000FF9F70B5044600262248058840884543B6
:1030A00020488088A0F5D041043916D11D48807988
:1030B000012812D100201B4988712A2048812B2029
:1030C000888100210846FEF7C9FC01201549887156
:1030D0002B2048812A20888103E000210846FEF742
:1030E000BDFCFEF78AFC002622E04FF480710C48FC
:1030F00007F029F84FF40071094807F026F8214637
:10310000064807F029F88021054807F01EF88021BD
:10311000034807F018F84FF4007105E0000C014077
:1031200000100140180A0020FE4807F00CF8761C39
:10313000AE42DAD370BD08B50121192007F00EFAAE
:103140000121F94807F023F84FF4F860ADF80000CA
:1031500010208DF8030003208DF802006946F14825
:1031600006F046FF4FF4F861EE4806F0ECFF4FF62C
:10317000FF70ADF800006946EC4806F039FF4FF6E5
:10318000FF71EA4806F0DFFF322006F0EBFD012177
:103190000020FEF708FC322006F0E4FD0020FEF7D8
:1031A00024FCE349888008468088FF280ADB08461B
:1031B0008088A0F57F41FF3904D0DD488088B0F5D4
:1031C000134F7CD1D320FEF777FBFEF7B1FBFEF760
:1031D000AFFBFEF7ADFBD6498880084680884FF6E6
:1031E000FF7101EA0020D2498880FEF7A1FBD04997
:1031F00089880843CE49888008468088A0F5134115
:1032000041396CD0BF20FEF757FBFEF791FBFEF76C
:103210008FFBFEF78DFBFEF78BFBC54988800846C8
:1032200080884FF6FF7101EA0020C1498880FEF7CF
:103230007FFBBF4989880843BD498880084680884C
:10324000A0F5D04104394AD0D420FEF735FBFEF773
:103250006FFBFEF76DFBFEF76BFBB54988800846F8
:1032600080884FF6FF7101EA0020B1498880FEF79F
:103270005FFBAF4989880843AD498880084680884C
:10328000A0F5A64110392AD04FF45A40FEF714FB9E
:10329000FEF74EFB4FF45B40FEF70EFBFEF748FBDC
:1032A000A3498880084680884FF6FF7101EA002014
:1032B0009F4988804FF45C40FEF7FEFA00E00EE084
:1032C000FEF736FB9A498988084399498880084661
:1032D0008088B0F5004F02D145F2105088809448A4
:1032E000818894A00CF02EF991488088A0F51341B4
:1032F00041397CD1CF20FEF7DFFA0020FEF7FAFA41
:10330000C120FEF7F7FA3020FEF7F4FAED20FEF7C1
:10331000D3FA6420FEF7EEFA0320FEF7EBFA122050
:10332000FEF7E8FA8120FEF7E5FAE820FEF7C4FA96
:103330008520FEF7DFFA1020FEF7DCFA7A20FEF790
:10334000D9FACB20FEF7B8FA3920FEF7D3FA2C20B1
:10335000FEF7D0FA0020FEF7CDFA3420FEF7CAFAC5
:103360000220FEF7C7FAF720FEF7A6FA2020FEF7A4
:10337000C1FAEA20FEF7A0FA0020FEF7BBFA00200F
:10338000FEF7B8FAC020FEF797FA1B20FEF7B2FA54
:10339000C120FEF791FA0120FEF7ACFAC520FEF736
:1033A0008BFA3020FEF7A6FA3020FEF7A3FAC720EA
:1033B000FEF782FAB720FEF79DFA3620FEF77CFA78
:1033C0004820FEF797FA3A20FEF776FA5520FEF7E6
:1033D00091FAB120FEF770FA0020FEF78BFA1A205E
:1033E000FEF788FAB620FEF767FA0A2000E0A9E0A7
:1033F000FEF780FAA220FEF77DFAF220FEF75CFAD3
:103400000020FEF777FA2620FEF756FA0120FEF795
:1034100071FAE020FEF750FA0F20FEF76BFA2A202F
:10342000FEF768FA2820FEF765FA0820FEF762FA30
:103430000E20FEF75FFA0820FEF75CFA5420FEF734
:1034400059FAA920FEF756FA4320FEF753FA0A204C
:10345000FEF750FA0F20FEF74DFA0020FEF74AFA69
:103460000020FEF747FA0020FEF744FA0020FEF79E
:1034700041FAE120FEF720FA0020FEF73BFA152082
:10348000FEF738FA1720FEF735FA0720FEF732FA72
:103490001120FEF72FFA0620FEF72CFA2B20FEF75C
:1034A00029FA5620FEF726FA3C20FEF723FA0520DB
:1034B000FEF720FA1020FEF71DFA0F20FEF71AFA89
:1034C0003F20FEF717FA3F20FEF714FA0F20FEF711
:1034D00011FA2B20FEF7F0F90020FEF70BFA00207E
:1034E000FEF708FA0120FEF705FA3F20FEF702FA80
:1034F0002A20FEF7E1F90020FEF7FCF90020FEF794
:10350000F9F90020FEF7F6F9EF20FEF7F3F91120A4
:10351000FEF7D2F9782006F025FC2920FEF7CCF939
:1035200003F008BB0010014000023000000C014015
:10353000180A0020204C43442049443A25780D0ABB
:1035400000000000FE488088A0F5D04104397CD1FD
:103550001120FEF7B1F9142006F004FCD020FEF78C
:10356000ABF90720FEF7C6F94220FEF7C3F91D208C
:10357000FEF7C0F9D120FEF79FF90020FEF7BAF957
:103580001A20FEF7B7F90920FEF7B4F9D220FEF7AA
:1035900093F90120FEF7AEF92220FEF7ABF9C02027
:1035A000FEF78AF91020FEF7A5F93B20FEF7A2F9F5
:1035B0000020FEF79FF90220FEF79CF91120FEF78C
:1035C00099F9C520FEF778F90320FEF793F9C82092
:1035D000FEF772F90020FEF78DF92520FEF78AF933
:1035E0002120FEF787F90520FEF784F90020FEF779
:1035F00081F90A20FEF77EF96520FEF77BF9252088
:10360000FEF778F97720FEF775F95020FEF772F98A
:103610000F20FEF76FF90020FEF76CF9F820FEF797
:103620004BF90120FEF766F9FE20FEF745F9002070
:10363000FEF760F90220FEF75DF92020FEF73CF965
:103640003620FEF739F9082000E02CE0FEF752F9A9
:103650003A20FEF731F95520FEF74CF92B20FEF702
:103660002BF90020FEF746F90020FEF743F9012070
:10367000FEF740F93F20FEF73DF92A20FEF71CF93E
:103680000020FEF737F90020FEF734F90120FEF79D
:1036900031F9DF20FEF72EF9782006F063FB2920B0
:1036A000FEF70AF93CE7A6488088A0F5A641103944
:1036B00040F07C87ED20FEF7FFF80120FEF71AF9B5
:1036C000FE20FEF717F9EE20FEF7F6F8DE20FEF7F3
:1036D00011F92120FEF70EF9F120FEF7EDF8012097
:1036E000FEF708F9DF20FEF7E7F81020FEF702F9F1
:1036F000C420FEF7E1F88F20FEF7FCF8C620FEF7A5
:10370000DBF80020FEF7F6F8E220FEF7F3F8E220FF
:10371000FEF7F0F8E220FEF7EDF8BF20FEF7CCF858
:10372000AA20FEF7E7F8B020FEF7C6F80D20FEF756
:10373000E1F80020FEF7DEF80D20FEF7DBF80020B0
:10374000FEF7D8F81120FEF7D5F80020FEF7D2F8E2
:103750001920FEF7CFF80020FEF7CCF82120FEF765
:10376000C9F80020FEF7C6F82D20FEF7C3F80020A8
:10377000FEF7C0F83D20FEF7BDF80020FEF7BAF8CE
:103780005D20FEF7B7F80020FEF7B4F85D20FEF7E5
:10379000B1F80020FEF7AEF8B120FEF78DF88020DA
:1037A000FEF7A8F80020FEF7A5F88B20FEF7A2F898
:1037B0000020FEF79FF89620FEF79CF80020FEF709
:1037C00099F8B220FEF778F80020FEF793F8002071
:1037D000FEF790F80220FEF78DF80020FEF78AF839
:1037E0000320FEF787F80020FEF784F8B320FEF7E9
:1037F00063F80020FEF77EF80020FEF77BF800203B
:10380000FEF778F80020FEF775F80020FEF772F852
:103810000020FEF76FF80020FEF76CF80020FEF79E
:1038200069F80020FEF766F80020FEF763F8002034
:10383000FEF760F80020FEF75DF80020FEF75AF86A
:103840000020FEF757F80020FEF754F80020FEF79E
:1038500051F80020FEF74EF80020FEF74BF800204C
:10386000FEF748F80020FEF745F80020FEF742F882
:103870000020FEF73FF80020FEF73CF80020FEF79E
:1038800039F8B420FEF718F88B20FEF733F8002043
:10389000FEF730F89620FEF72DF80020FEF72AF804
:1038A000A120FEF727F80020FEF724F8B520FEF748
:1038B00003F80220FEF71EF80020FEF71BF8032095
:1038C000FEF718F80020FEF715F80420FEF712F8AE
:1038D0000020FEF70FF8B620FDF7EEFF0020FEF700
:1038E00009F80020FEF706F8B720FDF7E5FF0020F5
:1038F000FEF700F80020FDF7FDFF3F20FDF7FAFF7F
:103900000020FDF7F7FF5E20FDF7F4FF0020FDF734
:10391000F1FF6420FDF7EEFF0020FDF7EBFF8C20A8
:10392000FDF7E8FF0020FDF7E5FFAC20FDF7E2FF23
:103930000020FDF7DFFFDC20FDF7DCFF002001E0C9
:10394000180A0020FDF7D6FF7020FDF7D3FF0020F6
:10395000FDF7D0FF9020FDF7CDFF0020FDF7CAFF57
:10396000EB20FDF7C7FF0020FDF7C4FFDC20FDF7CB
:10397000C1FF0020FDF7BEFFB820FDF79DFF00202E
:10398000FDF7B8FF0020FDF7B5FF0020FDF7B2FFFF
:103990000020FDF7AFFF0020FDF7ACFF0020FDF792
:1039A000A9FF0020FDF7A6FF0020FDF7A3FFBA2026
:1039B000FDF782FF2420FDF79DFF0020FDF79AFF11
:1039C0000020FDF797FF0020FDF794FFC120FDF7D1
:1039D00073FF2020FDF78EFF0020FDF78BFF5420A2
:1039E000FDF788FF0020FDF785FFFF20FDF782FF30
:1039F0000020FDF77FFFC220FDF75EFF0A20FDF7E4
:103A000079FF0020FDF776FF0420FDF773FF00200B
:103A1000FDF770FFC320FDF74FFF3C20FDF76AFF65
:103A20000020FDF767FF3A20FDF764FF0020FDF757
:103A300061FF3920FDF75EFF0020FDF75BFF3720B7
:103A4000FDF758FF0020FDF755FF3C20FDF752FF22
:103A50000020FDF74FFF3620FDF74CFF0020FDF75B
:103A600049FF3220FDF746FF0020FDF743FF2F20DE
:103A7000FDF740FF0020FDF73DFF2C20FDF73AFF4A
:103A80000020FDF737FF2920FDF734FF0020FDF768
:103A900031FF2620FDF72EFF0020FDF72BFF24200D
:103AA000FDF728FF0020FDF725FF2420FDF722FF6A
:103AB0000020FDF71FFF2320FDF71CFF0020FDF76E
:103AC00019FF3C20FDF716FF0020FDF713FF3620FD
:103AD000FDF710FF0020FDF70DFF3220FDF70AFF74
:103AE0000020FDF707FF2F20FDF704FF0020FDF762
:103AF00001FF2C20FDF7FEFE0020FDF7FBFE292034
:103B0000FDF7F8FE0020FDF7F5FE2620FDF7F2FE9A
:103B10000020FDF7EFFE2420FDF7ECFE0020FDF76E
:103B2000E9FE2420FDF7E6FE0020FDF7E3FE23205A
:103B3000FDF7E0FE0020FDF7DDFEC420FDF7BCFE32
:103B40006220FDF7D7FE0020FDF7D4FE0520FDF72B
:103B5000D1FE0020FDF7CEFE8420FDF7CBFE002035
:103B6000FDF7C8FEF020FDF7C5FE0020FDF7C2FE00
:103B70001820FDF7BFFE0020FDF7BCFEA420FDF7D6
:103B8000B9FE0020FDF7B6FE1820FDF7B3FE0020B9
:103B9000FDF7B0FE5020FDF7ADFE0020FDF7AAFEB8
:103BA0000C20FDF7A7FE0020FDF7A4FE1720FDF76F
:103BB000A1FE0020FDF79EFE9520FDF79BFE002054
:103BC000FDF798FEF320FDF795FE0020FDF792FE2D
:103BD000E620FDF78FFE0020FDF78CFEC520FDF7E7
:103BE0006BFE3220FDF786FE0020FDF783FE4420A9
:103BF000FDF780FE0020FDF77DFE6520FDF77AFED3
:103C00000020FDF777FE7620FDF774FE0020FDF71B
:103C100071FE8820FDF76EFE0020FDF76BFEC620CA
:103C2000FDF74AFE2020FDF765FE0020FDF762FE4D
:103C30001720FDF75FFE0020FDF75CFE0120FDF779
:103C400059FE0020FDF756FEC720FDF735FE002087
:103C5000FDF750FE0020FDF74DFE0020FDF74AFE67
:103C60000020FDF747FEC820FDF726FE0020FDF7E7
:103C700041FE0020FDF73EFE0020FDF73BFE002048
:103C8000FDF738FEC920FDF717FE0020FDF732FED4
:103C90000020FDF72FFE0020FDF72CFE0020FDF791
:103CA00029FE0020FDF726FE0020FDF723FE002060
:103CB000FDF720FE0020FDF71DFE0020FDF71AFE97
:103CC0000020FDF717FE0020FDF714FE0020FDF791
:103CD00011FE0020FDF70EFE0020FDF70BFE002078
:103CE000FDF708FE0020FDF705FEE020FDF7E4FDEE
:103CF0001620FDF7FFFD0020FDF7FCFD1C20FDF761
:103D0000F9FD0020FDF7F6FD2120FDF7F3FD002071
:103D1000FDF7F0FD3620FDF7EDFD0020FDF7EAFD93
:103D20004620FDF7E7FD0020FDF7E4FD5220FDF7FA
:103D3000E1FD0020FDF7DEFD6420FDF7DBFD002046
:103D4000FDF7D8FD7A20FDF7D5FD0020FDF7D2FD67
:103D50008B20FDF7CFFD0020FDF7CCFD9920FDF76E
:103D6000C9FD0020FDF7C6FDA820FDF7C3FD00201A
:103D7000FDF7C0FDB920FDF7BDFD0020FDF7BAFD40
:103D8000C420FDF7B7FD0020FDF7B4FDCA20FDF704
:103D9000B1FD0020FDF7AEFDD220FDF7ABFD002008
:103DA000FDF7A8FDD920FDF7A5FD0020FDF7A2FD38
:103DB000E020FDF79FFD0020FDF79CFDF320FDF7BF
:103DC00099FD0020FDF796FDE120FDF775FD162019
:103DD000FDF790FD0020FDF78DFD1C20FDF78AFD0D
:103DE0000020FDF787FD2220FDF784FD0020FDF770
:103DF00081FD3620FDF77EFD0020FDF77BFD45208F
:103E0000FDF778FD0020FDF775FD5220FDF772FDEE
:103E10000020FDF76FFD6420FDF76CFD0020FDF72D
:103E200069FD7A20FDF766FD0020FDF763FD8B201C
:103E3000FDF760FD0020FDF75DFD9920FDF75AFDBF
:103E40000020FDF757FDA820FDF754FD0020FDF7E9
:103E500051FDB920FDF74EFD0020FDF74BFDC420BC
:103E6000FDF748FD0020FDF745FDCA20FDF742FDA6
:103E70000020FDF73FFDD220FDF73CFD0020FDF7BF
:103E800039FDD820FDF736FD0020FDF733FDE02099
:103E9000FDF730FD0020FDF72DFDF320FDF72AFD95
:103EA0000020FDF727FDE220FDF706FD0520FDF7C8
:103EB00021FD0020FDF71EFD0B20FDF71BFD00205E
:103EC000FDF718FD1B20FDF715FD0020FDF712FD85
:103ED0003420FDF70FFD0020FDF70CFD4420FDF719
:103EE00009FD0020FDF706FD4F20FDF703FD002032
:103EF000FDF700FD6120FDF7FDFC0020FDF7FAFC59
:103F00007920FDF7F7FC0020FDF7F4FC8820FDF791
:103F1000F1FC0020FDF7EEFC9720FDF7EBFC002004
:103F2000FDF7E8FCA620FDF7E5FC0020FDF7E2FC2C
:103F3000B720FDF7DFFC0020FDF7DCFCC220FDF719
:103F4000D9FC0020FDF7D6FCC720FDF7D3FC0020EC
:103F5000FDF7D0FCD120FDF7CDFC0020FDF7CAFC19
:103F6000D620FDF7C7FC0020FDF7C4FCDD20FDF7DF
:103F7000C1FC0020FDF7BEFCF320FDF7BBFC0020D8
:103F8000FDF7B8FCE320FDF797FC0520FDF7B2FC38
:103F90000020FDF7AFFC0A20FDF7ACFC0020FDF788
:103FA000A9FC1C20FDF7A6FC0020FDF7A3FC332094
:103FB000FDF7A0FC0020FDF79DFC4420FDF79AFCD6
:103FC0000020FDF797FC5020FDF794FC0020FDF742
:103FD00091FC6220FDF78EFC0020FDF78BFC782021
:103FE000FDF788FC0020FDF785FC8820FDF782FCAA
:103FF0000020FDF77FFC9720FDF77CFC0020FDF7FB
:1040000079FCA620FDF776FC0020FDF773FCB720B5
:10401000FDF770FC0020FDF76DFCC220FDF76AFC87
:104020000020FDF767FCC720FDF764FC0020FDF7CA
:1040300061FCD120FDF75EFC0020FDF75BFCD52084
:10404000FDF758FC0020FDF755FCDD20FDF752FC84
:104050000020FDF74FFCF320FDF74CFC0020FDF79E
:1040600049FCE420FDF728FC0120FDF743FC00207B
:10407000FDF740FC0120FDF73DFC0020FDF73AFC78
:104080000220FDF737FC0020FDF734FC2A20FDF765
:1040900031FC0020FDF72EFC3C20FDF72BFC00201E
:1040A000FDF728FC4B20FDF725FC0020FDF722FC46
:1040B0005D20FDF71FFC0020FDF71CFC7420FDF7C0
:1040C00019FC0020FDF716FC8420FDF713FC0020EE
:1040D000FDF710FC9320FDF70DFC0020FDF70AFC16
:1040E000A220FDF707FC0020FDF704FCB320FDF73C
:1040F00001FC0020FDF7FEFBBE20FDF7FBFB0020CE
:10410000FDF7F8FBC420FDF7F5FB0020FDF7F2FBFF
:10411000CD20FDF7EFFB0020FDF7ECFBD320FDF7F2
:10412000E9FB0020FDF7E6FBDD20FDF7E3FB0020C7
:10413000FDF7E0FBF320FDF7DDFB0020FDF7DAFBE8
:10414000E520FDF7B9FB0020FDF7D4FB0020FDF7CB
:10415000D1FB0020FDF7CEFB0020FDF7CBFB0220BA
:10416000FDF7C8FB0020FDF7C5FB2920FDF7C2FBCA
:104170000020FDF7BFFB3C20FDF7BCFB0020FDF756
:10418000B9FB4B20FDF7B6FB0020FDF7B3FB5D202C
:10419000FDF7B0FB0020FDF7ADFB7420FDF7AAFB97
:1041A0000020FDF7A7FB8420FDF7A4FB0020FDF70E
:1041B000A1FB9320FDF79EFB0020FDF79BFBA220B7
:1041C000FDF798FB0020FDF795FBB320FDF792FB70
:1041D0000020FDF78FFBBE20FDF78CFB0020FDF7D4
:1041E00089FBC420FDF786FB0020FDF783FBCD2073
:1041F000FDF780FB0020FDF77DFBD320FDF77AFB68
:104200000020FDF777FBDC20FDF774FB0020FDF7B5
:1042100071FBF320FDF76EFB0020FDF76BFBE62042
:10422000FDF74AFB1120FDF765FB0020FDF762FB5F
:104230003420FDF75FFB0020FDF75CFB5620FDF707
:1042400059FB0020FDF756FB7620FDF753FB0020BD
:10425000FDF750FB7720FDF74DFB0020FDF74AFBF3
:104260006620FDF747FB0020FDF744FB8820FDF7A3
:1042700041FB0020FDF73EFB9920FDF73BFB0020B2
:10428000FDF738FBBB20FDF735FB0020FDF732FBC7
:104290009920FDF72FFB0020FDF72CFB6620FDF792
:1042A00029FB0020FDF726FB5520FDF723FB00200E
:1042B000FDF720FB5520FDF71DFB0020FDF71AFB45
:1042C0004520FDF717FB0020FDF714FB4320FDF709
:1042D00011FB0020FDF70EFB4420FDF70BFB002037
:1042E000FDF708FBE720FDF7E7FA3220FDF702FBB8
:1042F0000020FDF7FFFA5520FDF7FCFA0020FDF73E
:10430000F9FA7620FDF7F6FA0020FDF7F3FA6620B9
:10431000FDF7F0FA0020FDF7EDFA6720FDF7EAFA65
:104320000020FDF7E7FA6720FDF7E4FA0020FDF72B
:10433000E1FA8720FDF7DEFA0020FDF7DBFA99208D
:10434000FDF7D8FA0020FDF7D5FABB20FDF7D2FA29
:104350000020FDF7CFFA9920FDF7CCFA0020FDF7F9
:10436000C9FA7720FDF7C6FA0020FDF7C3FA44200A
:10437000FDF7C0FA0020FDF7BDFA5620FDF7BAFAA6
:104380000020FDF7B7FA2320FDF7B4FA0020FDF76F
:10439000B1FA3320FDF7AEFA0020FDF7ABFA452065
:1043A000FDF7A8FA0020FDF7A5FAE820FDF784FA4A
:1043B0000020FDF79FFA0020FDF79CFA9920FDF7F9
:1043C00099FA0020FDF796FA8720FDF793FA00206E
:1043D000FDF790FA8820FDF78DFA0020FDF78AFAA4
:1043E0007720FDF787FA0020FDF784FA6620FDF7B5
:1043F00081FA0020FDF77EFA8820FDF77BFA002085
:10440000FDF778FAAA20FDF775FA0020FDF772FA99
:10441000BB20FDF76FFA0020FDF76CFA9920FDF73D
:1044200069FA0020FDF766FA6620FDF763FA0020BE
:10443000FDF760FA5520FDF75DFA0020FDF75AFA06
:104440005520FDF757FA0020FDF754FA4420FDF7F8
:1044500051FA0020FDF74EFA4420FDF74BFA0020F8
:10446000FDF748FA5520FDF745FA0020FDF742FA1E
:10447000E920FDF721FAAA20FDF73CFA0020FDF71C
:1044800039FA0020FDF736FA0020FDF733FA002054
:10449000FDF712FAAA20FDF72DFACF20FDF70CFA4E
:1044A0000020FDF727FA0020FDF724FA0020FDF791
:1044B00021FA0020FDF71EFA0020FDF71BFA00206C
:1044C000FDF718FA0020FDF715FA0020FDF712FAA3
:1044D0000020FDF70FFA0020FDF70CFA0020FDF791
:1044E00009FA0020FDF706FA0020FDF703FA002084
:1044F000FDF700FA0020FDF7FDF90020FDF7FAF9BD
:104500000020FDF7F7F9F020FDF7D6F90020FDF7C0
:10451000F1F95020FDF7EEF90020FDF7EBF900204E
:10452000FDF7E8F90020FDF7E5F9F320FDF7C4F900
:104530000020FDF7DFF9F920FDF7BEF90620FDF7B1
:10454000D9F91020FDF7D6F92920FDF7D3F900207D
:10455000FDF7D0F93A20FDF7AFF95520FDF7CAF97C
:104560001120FDF7A9F9642005F0FCFB2920FDF7D7
:10457000A3F93520FDF7A0F90020FDF7BBF9512084
:10458000FDF79AF9FF20FDF7B5F95320FDF794F9EF
:104590002C20FDF7AFF95520FDF78EF98220FDF7AD
:1045A000A9F92C20FDF788F902F0C4BAFE488088EA
:1045B000A0F5AA4110397DD155214FF47040FDF787
:1045C000F2F9AA214FF20100FDF7EDF952214FF265
:1045D0000200FDF7E8F908214FF20300FDF7E3F9C7
:1045E00001214FF20400FDF7DEF90D214FF43040B8
:1045F000FDF7D9F90D214BF20100FDF7D4F90D219A
:104600004BF20200FDF7CFF934214FF43640FDF7AD
:10461000CAF934214BF20160FDF7C5F934214BF2A0
:104620000260FDF7C0F90D214FF43140FDF7BBF9F1
:104630000D214BF20110FDF7B6F90D214BF20210DE
:10464000FDF7B1F934214FF43740FDF7ACF93421CF
:104650004BF20170FDF7A7F934214BF20270FDF720
:10466000A2F900214FF43240FDF79DF900214BF2F1
:104670000120FDF798F900214BF20220FDF793F994
:1046800024214FF43840FDF78EF924214BF6010028
:10469000FDF789F924214BF60200FDF784F9012189
:1046A0004FF43F40FDF77FF90F214FF43340FDF702
:1046B0007AF900E0FDE30F214BF20130FDF773F9C9
:1046C0000F214BF20230FDF76EF934214FF43940DF
:1046D000FDF769F934214BF60110FDF764F9342137
:1046E0004BF60210FDF75FF908214FF43540FDF756
:1046F0005AF908214BF20150FDF755F908214BF208
:104700000250FDF750F903214FF44240FDF74BF9F9
:1047100024214FF43A40FDF746F924214BF60120BD
:10472000FDF741F924214BF60220FDF73CF9002169
:104730004FF43C40FDF737F978214BF60140FDF787
:1047400032F900214BF60240FDF72DF900214FF41C
:104750003D40FDF728F978214BF60150FDF723F98C
:1047600000214BF60250FDF71EF900214FF43E40A8
:10477000FDF719F964214BF60160FDF714F90021EA
:104780004FF45140FDF70FF933214DF20110FDF7C1
:104790000AF900214DF20210FDF705F934214DF21E
:1047A0000310FDF700F900214DF20410FDF7FBF8AE
:1047B0003A214DF20510FDF7F6F800214DF20610F2
:1047C000FDF7F1F84A214DF20710FDF7ECF8002152
:1047D0004DF20810FDF7E7F85C214DF20910FDF7E6
:1047E000E2F800214DF20A10FDF7DDF881214DF2CB
:1047F0000B10FDF7D8F800214DF20C10FDF7D3F89F
:10480000A6214DF20D10FDF7CEF800214DF20E104D
:10481000FDF7C9F8E5214DF20F10FDF7C4F80121AD
:104820004DF21010FDF7BFF813214DF21110FDF7F6
:10483000BAF801214DF21210FDF7B5F854214DF2EE
:104840001310FDF7B0F801214DF21410FDF7ABF88D
:1048500082214DF21510FDF7A6F801214DF2161038
:10486000FDF7A1F8CA214DF21710FDF79CF80221BF
:104870004DF21810FDF797F800214DF21910FDF7D1
:1048800092F802214DF21A10FDF78DF801214DF238
:104890001B10FDF788F802214DF21C10FDF783F87C
:1048A00034214DF21D10FDF77EF802214DF21E104D
:1048B000FDF779F867214DF21F10FDF774F802211A
:1048C0004DF22010FDF76FF884214DF22110FDF715
:1048D0006AF802214DF22210FDF765F8A4214DF28D
:1048E0002310FDF760F802214DF22410FDF75BF86C
:1048F000B7214DF22510FDF756F802214DF2261092
:10490000FDF751F8CF214DF22710FDF74CF80221A9
:104910004DF22810FDF747F8DE214DF22910FDF782
:1049200042F802214DF22A10FDF73DF8F2214DF236
:104930002B10FDF738F802214DF22C10FDF733F85B
:10494000FE214DF22D10FDF72EF803214DF22E1011
:10495000FDF729F810214DF22F10FDF724F803215F
:104960004DF23010FDF71FF833214DF23110FDF7F5
:104970001AF803214DF23210FDF715F86D214DF2B2
:104980003310FDF710F800214FF45240FDF70BF8FB
:1049900033214DF20120FDF706F800214DF20220EF
:1049A000FDF701F8342101E0180A00204DF2032040
:1049B000FCF7F9FF00214DF20420FCF7F4FF3A2147
:1049C0004DF20520FCF7EFFF00214DF20620FCF729
:1049D000EAFF4A214DF20720FCF7E5FF00214DF2E6
:1049E0000820FCF7E0FF5C214DF20920FCF7DBFF1B
:1049F00000214DF20A20FCF7D6FF81214DF20B2059
:104A0000FCF7D1FF00214DF20C20FCF7CCFFA621D2
:104A10004DF20D20FCF7C7FF00214DF20E20FCF7F0
:104A2000C2FFE5214DF20F20FCF7BDFF01214DF241
:104A30001020FCF7B8FF13214DF21120FCF7B3FF53
:104A400001214DF21220FCF7AEFF54214DF213204C
:104A5000FCF7A9FF01214DF21420FCF7A4FF8221ED
:104A60004DF21520FCF79FFF01214DF21620FCF7B7
:104A70009AFFCA214DF21720FCF795FF02214DF253
:104A80001820FCF790FF00214DF21920FCF78BFF56
:104A900002214DF21A20FCF786FF01214DF21B2066
:104AA000FCF781FF02214DF21C20FCF77CFF342132
:104AB0004DF21D20FCF777FF02214DF21E20FCF77E
:104AC00072FF67214DF21F20FCF76DFF02214DF2AE
:104AD0002020FCF768FF84214DF22120FCF763FFC2
:104AE00002214DF22220FCF75EFFA4214DF223208B
:104AF000FCF759FF02214DF22420FCF754FFB721A7
:104B00004DF22520FCF74FFF02214DF22620FCF745
:104B10004AFFCF214DF22720FCF745FF02214DF23D
:104B20002820FCF740FFDE214DF22920FCF73BFF57
:104B300002214DF22A20FCF736FFF2214DF22B2004
:104B4000FCF731FF02214DF22C20FCF72CFFFE2157
:104B50004DF22D20FCF727FF03214DF22E20FCF70C
:104B600022FF10214DF22F20FCF71DFF03214DF2F3
:104B70003020FCF718FF33214DF23120FCF713FFF2
:104B800003214DF23220FCF70EFF6D214DF2332050
:104B9000FCF709FF00214FF45340FCF704FF3321D9
:104BA0004DF20130FCF7FFFE00214DF20230FCF720
:104BB000FAFE34214DF20330FCF7F5FE00214DF2F0
:104BC0000430FCF7F0FE3A214DF20530FCF7EBFE25
:104BD00000214DF20630FCF7E6FE4A214DF2073087
:104BE000FCF7E1FE00214DF20830FCF7DCFE5C2111
:104BF0004DF20930FCF7D7FE00214DF20A30FCF7E8
:104C0000D2FE81214DF20B30FCF7CDFE00214DF29A
:104C10000C30FCF7C8FEA6214DF20D30FCF7C3FEA8
:104C200000214DF20E30FCF7BEFEE5214DF20F30B3
:104C3000FCF7B9FE01214DF21030FCF7B4FE132150
:104C40004DF21130FCF7AFFE01214DF21230FCF7AE
:104C5000AAFE54214DF21330FCF7A5FE01214DF2BE
:104C60001430FCF7A0FE82214DF21530FCF79BFEBC
:104C700001214DF21630FCF796FECA214DF2173095
:104C8000FCF791FE02214DF21830FCF78CFE00215A
:104C90004DF21930FCF787FE02214DF21A30FCF775
:104CA00082FE01214DF21B30FCF77DFE02214DF208
:104CB0001C30FCF778FE34214DF21D30FCF773FEFA
:104CC00002214DF21E30FCF76EFE67214DF21F30BF
:104CD000FCF769FE02214DF22030FCF764FE8421CE
:104CE0004DF22130FCF75FFE02214DF22230FCF73D
:104CF0005AFEA4214DF22330FCF755FE02214DF25D
:104D00002430FCF750FEB7214DF22530FCF74BFE66
:104D100002214DF22630FCF746FECF214DF227301E
:104D2000FCF741FE02214DF22830FCF73CFEDE216B
:104D30004DF22930FCF737FE02214DF22A30FCF704
:104D400032FEF2214DF22B30FCF72DFE02214DF206
:104D50002C30FCF728FEFE214DF22D30FCF723FE0F
:104D600003214DF22E30FCF71EFE10214DF22F30A4
:104D7000FCF719FE03214DF23030FCF714FE33210D
:104D80004DF23130FCF70FFE03214DF23230FCF7CB
:104D90000AFE6D214DF23330FCF705FE00214FF481
:104DA0005440FCF700FE33214DF20140FCF7FBFDBF
:104DB00000214DF20240FCF7F6FD34214DF2034094
:104DC000FCF7F1FD00214DF20440FCF7ECFD3A2127
:104DD0004DF20540FCF7E7FD00214DF20640FCF7DF
:104DE000E2FD4A214DF20740FCF7DDFD00214DF2C6
:104DF0000840FCF7D8FD5C214DF20940FCF7D3FDDB
:104E000000214DF20A40FCF7CEFD81214DF20B400E
:104E1000FCF7C9FD00214DF20C40FCF7C4FDA621B2
:104E20004DF20D40FCF7BFFD00214DF20E40FCF7A6
:104E3000BAFDE5214DF20F40FCF7B5FD01214DF221
:104E40001040FCF7B0FD13214DF21140FCF7ABFD13
:104E500001214DF21240FCF7A6FD54214DF2134002
:104E6000FCF7A1FD01214DF21440FCF79CFD8221CD
:104E70004DF21540FCF797FD01214DF21640FCF76D
:104E800092FDCA214DF21740FCF78DFD02214DF233
:104E90001840FCF788FD00214DF21940FCF783FD16
:104EA00002214DF21A40FCF77EFD01214DF21B401C
:104EB00000E006E3FCF777FD02214DF21C40FCF711
:104EC00072FD34214DF21D40FCF76DFD02214DF2C3
:104ED0001E40FCF768FD67214DF21F40FCF763FDA3
:104EE00002214DF22040FCF75EFD84214DF221406D
:104EF000FCF759FD02214DF22240FCF754FDA4219C
:104F00004DF22340FCF74FFD02214DF22440FCF707
:104F10004AFDB7214DF22540FCF745FD02214DF237
:104F20002640FCF740FDCF214DF22740FCF73BFD2A
:104F300002214DF22840FCF736FDDE214DF22940DA
:104F4000FCF731FD02214DF22A40FCF72CFDF22145
:104F50004DF22B40FCF727FD02214DF22C40FCF7CF
:104F600022FDFE214DF22D40FCF71DFD03214DF2E7
:104F70002E40FCF718FD10214DF22F40FCF713FDD9
:104F800003214DF23040FCF70EFD33214DF231404C
:104F9000FCF709FD03214DF23240FCF704FD6D21C1
:104FA0004DF23340FCF7FFFC00214FF45540FCF775
:104FB000FAFC33214DF20150FCF7F5FC00214DF2D3
:104FC0000250FCF7F0FC34214DF20350FCF7EBFCEF
:104FD00000214DF20450FCF7E6FC3A214DF2055059
:104FE000FCF7E1FC00214DF20650FCF7DCFC4A2105
:104FF0004DF20750FCF7D7FC00214DF20850FCF7AA
:10500000D2FC5C214DF20950FCF7CDFC00214DF2A1
:105010000A50FCF7C8FC81214DF20B50FCF7C3FC91
:1050200000214DF20C50FCF7BEFCA6214DF20D50B4
:10503000FCF7B9FC00214DF20E50FCF7B4FCE52161
:105040004DF20F50FCF7AFFC01214DF21050FCF770
:10505000AAFC13214DF21150FCF7A5FC01214DF2E1
:105060001250FCF7A0FC54214DF21350FCF79BFCAE
:1050700001214DF21450FCF796FC82214DF215509F
:10508000FCF791FC01214DF21650FCF78CFCCA2173
:105090004DF21750FCF787FC02214DF21850FCF737
:1050A00082FC00214DF21950FCF77DFC02214DF2EB
:1050B0001A50FCF778FC01214DF21B50FCF773FCF1
:1050C00002214DF21C50FCF76EFC34214DF21D50B4
:1050D000FCF769FC02214DF21E50FCF764FC6721CD
:1050E0004DF21F50FCF75FFC02214DF22050FCF7FF
:1050F0005AFC84214DF22150FCF755FC02214DF25F
:105100002250FCF750FCA4214DF22350FCF74BFC3D
:1051100002214DF22450FCF746FCB7214DF22550F8
:10512000FCF741FC02214DF22650FCF73CFCCF215C
:105130004DF22750FCF737FC02214DF22850FCF7C6
:1051400032FCDE214DF22950FCF72DFC02214DF2FC
:105150002A50FCF728FCF2214DF22B50FCF723FCDF
:1051600002214DF22C50FCF71EFCFE214DF22D5079
:10517000FCF719FC03214DF22E50FCF714FC102112
:105180004DF22F50FCF70FFC03214DF23050FCF78D
:105190000AFC33214DF23150FCF705FC03214DF29E
:1051A0003250FCF700FC6D214DF23350FCF7FBFB55
:1051B00000214FF45640FCF7F6FB33214DF201601D
:1051C000FCF7F1FB00214DF20260FCF7ECFB34210F
:1051D0004DF20360FCF7E7FB00214DF20460FCF7A1
:1051E000E2FB3A214DF20560FCF7DDFB00214DF2B8
:1051F0000660FCF7D8FB4A214DF20760FCF7D3FBB1
:1052000000214DF20860FCF7CEFB5C214DF20960F5
:10521000FCF7C9FB00214DF20A60FCF7C4FB8121B9
:105220004DF20B60FCF7BFFB00214DF20C60FCF768
:10523000BAFBA6214DF20D60FCF7B5FB00214DF243
:105240000E60FCF7B0FBE5214DF20F60FCF7ABFB05
:1052500001214DF21060FCF7A6FB13214DF2116005
:10526000FCF7A1FB01214DF21260FCF79CFB5421DD
:105270004DF21360FCF797FB01214DF21460FCF72F
:1052800092FB82214DF21560FCF78DFB01214DF25E
:105290001660FCF788FBCA214DF21760FCF783FB10
:1052A00002214DF21860FCF77EFB00214DF21960DF
:1052B000FCF779FB02214DF21A60FCF774FB012127
:1052C0004DF21B60FCF76FFB02214DF21C60FCF7F6
:1052D0006AFB34214DF21D60FCF765FB02214DF2A3
:1052E0001E60FCF760FB67214DF21F60FCF75BFB63
:1052F00002214DF22060FCF756FB84214DF2216023
:10530000FCF751FB02214DF22260FCF74CFBA4217B
:105310004DF22360FCF747FB02214DF22460FCF7BD
:1053200042FBB7214DF22560FCF73DFB02214DF217
:105330002660FCF738FBCF214DF22760FCF733FBEA
:1053400002214DF22860FCF72EFBDE214DF2296090
:10535000FCF729FB02214DF22A60FCF724FBF22125
:105360004DF22B60FCF71FFB02214DF22C60FCF785
:105370001AFBFE214DF22D60FCF715FB03214DF2C7
:105380002E60FCF710FB10214DF22F60FCF70BFB99
:1053900003214DF23060FCF706FB33214DF2316002
:1053A000FCF701FB03214DF23260FCF7FCFA6D21A2
:1053B0004DF23360FCF7F7FA55214FF47040FCF7DB
:1053C000F2FAAA214FF20100FCF7EDFA52214FF256
:1053D0000200FCF7E8FA08214FF20300FCF7E3FAB9
:1053E00000214FF20400FCF7DEFACC214FF43140EB
:1053F000FCF7D9FA00214BF20110FCF7D4FA052191
:105400004FF43640FCF7CFFA70214FF43740FCF7E9
:10541000CAFA70214BF20170FCF7C5FA01214FF472
:105420003840FCF7C0FA03214BF60100FCF7BBFA49
:1054300003214BF60200FCF7B6FA03214BF60300FA
:10544000FCF7B1FA02214FF43C40FCF7ACFA002122
:105450004BF60140FCF7A7FA00214BF60240FCF79F
:10546000A2FAD0214FF44940FCF79DFA02214CF6F4
:105470000110FCF798FA50214CF60210FCF793FA51
:1054800050214CF60310FCF78EFA50214CF6041014
:10549000FCF789FA00214FF45450FCF784FA5521A7
:1054A0004FF46850FCF77FFA4FF48850FCF704FA89
:1054B000782004F034FC4FF42450FCF7FDF901F09F
:1054C00039BBFE488088A0F5134125397ED147F6C7
:1054D000F001E520FCF767FA4FF480710120FCF73A
:1054E00062FA4FF4E0610220FCF75DFA41F230010C
:1054F0000320FCF758FA00210420FCF754FA40F28C
:1055000002210820FCF74FFA00210920FCF74BFA92
:1055100000210A20FCF747FA00210C20FCF743FA8F
:1055200000210D20FCF73FFA00210F20FCF73BFA89
:1055300000211020FCF737FA07211120FCF733FA7D
:1055400000211220FCF72FFA00211320FCF72BFA80
:1055500000210720FCF727FA41F290611020FCF7A8
:1055600022FA40F227211120FCF71DFA9D2112207A
:10557000FCF719FA4FF4C8511320FCF714FA25214F
:105580002920FCF710FA0D212B20FCF70CFA07213B
:105590003020FCF708FA40F203313120FCF703FA1F
:1055A00003213220FCF7FFF940F206213520FCF7F9
:1055B000FAF908213620FCF7F6F940F206413720C7
:1055C000FCF7F1F94FF44171382000E057E0FCF7A7
:1055D000EAF907213920FCF7E6F940F202613C20A4
:1055E000FCF7E1F908213D20FCF7DDF9002150200E
:1055F000FCF7D9F9EF215120FCF7D5F90021522011
:10560000FCF7D1F940F23F115320FCF7CCF94FF4ED
:1056100027416020FCF7C7F901216120FCF7C3F99D
:1056200000216A20FCF7BFF900218020FCF7BBF9BC
:1056300000218120FCF7B7F900218220FCF7B3F9A3
:1056400000218320FCF7AFF900218420FCF7ABF99F
:1056500000218520FCF7A7F910219020FCF7A3F981
:105660004FF4C0619220FCF79EF940F233110720FD
:10567000FCF799F922210020FCF795F91FE78F48E4
:105680008088A0F5134128397ED141F28F01EC20AA
:10569000FCF789F941F23421EF20FCF784F94FF44B
:1056A00080710120FCF77FF94FF4E0610220FCF7E4
:1056B0007AF941F230010320FCF775F9002104204A
:1056C000FCF771F940F202210820FCF76CF9002187
:1056D0000920FCF768F900210A20FCF764F9012190
:1056E0000C20FCF760F900210D20FCF75CF900218B
:1056F0000F20FCF758F900211020FCF754F907217E
:105700001120FCF750F900211220FCF74CF9002180
:105710001320FCF748F901210720FCF744F9322057
:1057200004F020FB41F290411020FCF73CF940F2DC
:1057300027211120FCF737F9322004F013FB8A21CE
:105740001220FCF730F9322004F00CFB4FF4D0515A
:105750001320FCF728F906212920FCF724F90D2154
:105760002B20FCF720F9322004F0FCFA0021202045
:10577000FCF719F900212120FCF715F9322004F07B
:10578000F1FA0021302000E074E0FCF70CF940F25F
:1057900004613120FCF707F940F205313220FCF7B3
:1057A00002F900213520FCF7FEF840F609413620C9
:1057B000FCF7F9F84FF401713720FCF7F4F840F2E8
:1057C00001313820FCF7EFF840F207713920FCF77F
:1057D000EAF800213C20FCF7E6F840F60A213D20DB
:1057E000FCF7E1F8322004F0BDFA00215020FCF76C
:1057F000DAF8EF215120FCF7D6F800215220FCF70F
:10580000D2F840F23F115320FCF7CDF84FF4274176
:105810006020FCF7C8F801216120FCF7C4F80021E2
:105820006A20FCF7C0F800218020FCF7BCF80021BA
:105830008120FCF7B8F800218220FCF7B4F80021A1
:105840008320FCF7B0F800218420FCF7ACF800219D
:105850008520FCF7A8F810219020FCF7A4F84FF45D
:10586000C0619220FCF79FF840F233110720FCF74B
:105870009AF824E611488088A0F5134125397CD197
:1058800047F6F001E520FCF78EF84FF48071012017
:10589000FCF789F84FF4E0610220FCF784F841F24C
:1058A00030010320FCF77FF800210420FCF77BF88F
:1058B00040F202210820FCF776F801E0180A0020E7
:1058C00000210920FCF76FF800210A20FCF76BF893
:1058D00000210C20FCF767F800210D20FCF763F88D
:1058E00000210F20FCF75FF800211020FCF75BF887
:1058F00007211120FCF757F800211220FCF753F87C
:1059000000211320FCF74FF800210720FCF74BF88B
:1059100041F290611020FCF746F840F22721112057
:10592000FCF741F89D211220FCF73DF84FF4C851D7
:105930001320FCF738F825212920FCF734F80D2135
:105940002B20FCF730F807213020FCF72CF840F230
:1059500003313120FCF727F803213220FCF723F82C
:1059600040F206213520FCF71EF808213620FCF70E
:105970001AF840F20641372000E05CE0FCF713F82B
:105980004FF441713820FCF70EF807213920FCF75D
:105990000AF840F202613C20FCF705F808213D209E
:1059A000FCF701F800215020FBF7FDFFEF2151200B
:1059B000FBF7F9FF00215220FBF7F5FF40F23F1102
:1059C0005320FBF7F0FF4FF427416020FBF7EBFF7C
:1059D00001216120FBF7E7FF00216A20FBF7E3FFCD
:1059E00000218020FBF7DFFF00218120FBF7DBFF98
:1059F00000218220FBF7D7FF00218320FBF7D3FF94
:105A000000218420FBF7CFFF00218520FBF7CBFF8F
:105A100010219020FBF7C7FF4FF4C0619220FBF7E5
:105A2000C2FF40F233110720FBF7BDFF2221002007
:105A3000FBF7B9FF43E5FE488088A0F513412839FC
:105A40007ED141F28F01EC20FBF7ADFF41F2342112
:105A5000EF20FBF7A8FF4FF480710120FBF7A3FFB5
:105A60004FF4E0610220FBF79EFF41F2300103207A
:105A7000FBF799FF00210420FBF795FF40F202217C
:105A80000820FBF790FF00210920FBF78CFF002185
:105A90000A20FBF788FF01210C20FBF784FF00217F
:105AA0000D20FBF780FF00210F20FBF77CFF00217A
:105AB0001020FBF778FF07211120FBF774FF00216E
:105AC0001220FBF770FF00211320FBF76CFF012170
:105AD0000720FBF768FF322004F044F941F29041BF
